{
  "contractName": "Voting",
  "abi": [
    {
      "anonymous": false,
      "inputs": [
        {
          "indexed": true,
          "internalType": "address",
          "name": "previousOwner",
          "type": "address"
        },
        {
          "indexed": true,
          "internalType": "address",
          "name": "newOwner",
          "type": "address"
        }
      ],
      "name": "OwnershipTransferred",
      "type": "event"
    },
    {
      "anonymous": false,
      "inputs": [
        {
          "indexed": false,
          "internalType": "uint256",
          "name": "proposalId",
          "type": "uint256"
        }
      ],
      "name": "ProposalRegistered",
      "type": "event"
    },
    {
      "anonymous": false,
      "inputs": [
        {
          "indexed": false,
          "internalType": "address",
          "name": "voter",
          "type": "address"
        },
        {
          "indexed": false,
          "internalType": "uint256",
          "name": "proposalId",
          "type": "uint256"
        }
      ],
      "name": "Voted",
      "type": "event"
    },
    {
      "anonymous": false,
      "inputs": [
        {
          "indexed": false,
          "internalType": "address",
          "name": "voterAddress",
          "type": "address"
        }
      ],
      "name": "VoterRegistered",
      "type": "event"
    },
    {
      "anonymous": false,
      "inputs": [
        {
          "indexed": false,
          "internalType": "enum Voting.WorkflowStatus",
          "name": "previousStatus",
          "type": "uint8"
        },
        {
          "indexed": false,
          "internalType": "enum Voting.WorkflowStatus",
          "name": "newStatus",
          "type": "uint8"
        }
      ],
      "name": "WorkflowStatusChange",
      "type": "event"
    },
    {
      "inputs": [],
      "name": "owner",
      "outputs": [
        {
          "internalType": "address",
          "name": "",
          "type": "address"
        }
      ],
      "stateMutability": "view",
      "type": "function",
      "constant": true
    },
    {
      "inputs": [],
      "name": "renounceOwnership",
      "outputs": [],
      "stateMutability": "nonpayable",
      "type": "function"
    },
    {
      "inputs": [
        {
          "internalType": "address",
          "name": "newOwner",
          "type": "address"
        }
      ],
      "name": "transferOwnership",
      "outputs": [],
      "stateMutability": "nonpayable",
      "type": "function"
    },
    {
      "inputs": [],
      "name": "workflowStatus",
      "outputs": [
        {
          "internalType": "enum Voting.WorkflowStatus",
          "name": "",
          "type": "uint8"
        }
      ],
      "stateMutability": "view",
      "type": "function",
      "constant": true
    },
    {
      "inputs": [
        {
          "internalType": "address",
          "name": "_addr",
          "type": "address"
        }
      ],
      "name": "getVoter",
      "outputs": [
        {
          "components": [
            {
              "internalType": "bool",
              "name": "isRegistered",
              "type": "bool"
            },
            {
              "internalType": "bool",
              "name": "hasVoted",
              "type": "bool"
            },
            {
              "internalType": "uint256",
              "name": "votedProposalId",
              "type": "uint256"
            }
          ],
          "internalType": "struct Voting.Voter",
          "name": "",
          "type": "tuple"
        }
      ],
      "stateMutability": "view",
      "type": "function",
      "constant": true
    },
    {
      "inputs": [
        {
          "internalType": "uint256",
          "name": "_id",
          "type": "uint256"
        }
      ],
      "name": "getOneProposal",
      "outputs": [
        {
          "components": [
            {
              "internalType": "string",
              "name": "description",
              "type": "string"
            },
            {
              "internalType": "uint256",
              "name": "voteCount",
              "type": "uint256"
            }
          ],
          "internalType": "struct Voting.Proposal",
          "name": "",
          "type": "tuple"
        }
      ],
      "stateMutability": "view",
      "type": "function",
      "constant": true
    },
    {
      "inputs": [
        {
          "internalType": "address",
          "name": "_addr",
          "type": "address"
        }
      ],
      "name": "addVoter",
      "outputs": [],
      "stateMutability": "nonpayable",
      "type": "function"
    },
    {
      "inputs": [
        {
          "internalType": "address",
          "name": "_addr",
          "type": "address"
        }
      ],
      "name": "deleteVoter",
      "outputs": [],
      "stateMutability": "nonpayable",
      "type": "function"
    },
    {
      "inputs": [
        {
          "internalType": "string",
          "name": "_desc",
          "type": "string"
        }
      ],
      "name": "addProposal",
      "outputs": [],
      "stateMutability": "nonpayable",
      "type": "function"
    },
    {
      "inputs": [
        {
          "internalType": "uint256",
          "name": "_id",
          "type": "uint256"
        }
      ],
      "name": "setVote",
      "outputs": [],
      "stateMutability": "nonpayable",
      "type": "function"
    },
    {
      "inputs": [
        {
          "internalType": "uint256",
          "name": "_num",
          "type": "uint256"
        }
      ],
      "name": "setWorkflowStatus",
      "outputs": [],
      "stateMutability": "nonpayable",
      "type": "function"
    },
    {
      "inputs": [],
      "name": "nextWorkflowStatus",
      "outputs": [],
      "stateMutability": "nonpayable",
      "type": "function"
    },
    {
      "inputs": [],
      "name": "tallyVotesDraw",
      "outputs": [
        {
          "internalType": "uint256[]",
          "name": "",
          "type": "uint256[]"
        }
      ],
      "stateMutability": "nonpayable",
      "type": "function"
    },
    {
      "inputs": [],
      "name": "tallyDraw",
      "outputs": [],
      "stateMutability": "nonpayable",
      "type": "function"
    }
  ],
  "bytecode": "0x608060405234801562000010575f80fd5b5062000031620000256200003760201b60201c565b6200003e60201b60201c565b620000ff565b5f33905090565b5f805f9054906101000a900473ffffffffffffffffffffffffffffffffffffffff169050815f806101000a81548173ffffffffffffffffffffffffffffffffffffffff021916908373ffffffffffffffffffffffffffffffffffffffff1602179055508173ffffffffffffffffffffffffffffffffffffffff168173ffffffffffffffffffffffffffffffffffffffff167f8be0079c531659141344cd1fd0a4f28419497f9722a3daafe3b4186f6b6457e060405160405180910390a35050565b6127ba806200010d5f395ff3fe608060405234801561000f575f80fd5b50600436106100e8575f3560e01c806388e1c7391161008a578063a2788cce11610064578063a2788cce146101d4578063d4f50f9814610204578063f2fde38b14610234578063f4ab9adf14610250576100e8565b806388e1c7391461017c5780638da5cb5b14610198578063a1edffa2146101b6576100e8565b80633beee92e116100c65780633beee92e1461012e578063424f80db1461014c578063715018a6146101685780637540628414610172576100e8565b806319a59b64146100ec578063230796ae146100f65780632fdae3c514610112575b5f80fd5b6100f461026c565b005b610110600480360381019061010b91906116ba565b61043e565b005b61012c60048036038101906101279190611821565b610729565b005b61013661095a565b604051610143919061191f565b60405180910390f35b610166600480360381019061016191906116ba565b610bc8565b005b610170610d3f565b005b61017a610d52565b005b61019660048036038101906101919190611999565b610e80565b005b6101a061101e565b6040516101ad91906119d3565b60405180910390f35b6101be611045565b6040516101cb9190611a5f565b60405180910390f35b6101ee60048036038101906101e991906116ba565b611057565b6040516101fb9190611b2c565b60405180910390f35b61021e60048036038101906102199190611999565b6111b5565b60405161022b9190611ba6565b60405180910390f35b61024e60048036038101906102499190611999565b6112d4565b005b61026a60048036038101906102659190611999565b611356565b005b6102746114f5565b60046005811115610288576102876119ec565b5b60035f9054906101000a900460ff1660058111156102a9576102a86119ec565b5b146102e9576040517f08c379a00000000000000000000000000000000000000000000000000000000081526004016102e090611c3f565b60405180910390fd5b5f805f90505b60048054905081101561036157816004828154811061031157610310611c5d565b5b905f5260205f20906002020160010154111561034e576004818154811061033b5761033a611c5d565b5b905f5260205f2090600202016001015491505b808061035990611cb7565b9150506102ef565b505f5b6004805490508110156103d557816004828154811061038657610385611c5d565b5b905f5260205f20906002020160010154036103c257600181908060018154018082558091505060019003905f5260205f20015f90919091909150555b80806103cd90611cb7565b915050610364565b50600560035f6101000a81548160ff021916908360058111156103fb576103fa6119ec565b5b02179055507f0a97a4ee45751e2abf3e4fc8946939630b11b371ea8ae39ccdc3056e98f5cc3f60046005604051610433929190611cfe565b60405180910390a150565b60055f3373ffffffffffffffffffffffffffffffffffffffff1673ffffffffffffffffffffffffffffffffffffffff1681526020019081526020015f205f015f9054906101000a900460ff166104c9576040517f08c379a00000000000000000000000000000000000000000000000000000000081526004016104c090611d6f565b60405180910390fd5b600360058111156104dd576104dc6119ec565b5b60035f9054906101000a900460ff1660058111156104fe576104fd6119ec565b5b1461053e576040517f08c379a000000000000000000000000000000000000000000000000000000000815260040161053590611dfd565b60405180910390fd5b6001151560055f3373ffffffffffffffffffffffffffffffffffffffff1673ffffffffffffffffffffffffffffffffffffffff1681526020019081526020015f205f0160019054906101000a900460ff161515036105d1576040517f08c379a00000000000000000000000000000000000000000000000000000000081526004016105c890611e65565b60405180910390fd5b6004805490508110610618576040517f08c379a000000000000000000000000000000000000000000000000000000000815260040161060f90611ecd565b60405180910390fd5b8060055f3373ffffffffffffffffffffffffffffffffffffffff1673ffffffffffffffffffffffffffffffffffffffff1681526020019081526020015f2060010181905550600160055f3373ffffffffffffffffffffffffffffffffffffffff1673ffffffffffffffffffffffffffffffffffffffff1681526020019081526020015f205f0160016101000a81548160ff021916908315150217905550600481815481106106c9576106c8611c5d565b5b905f5260205f2090600202016001015f8154809291906106e890611cb7565b91905055507f4d99b957a2bc29a30ebd96a7be8e68fe50a3c701db28a91436490b7d53870ca4338260405161071e929190611efa565b60405180910390a150565b60055f3373ffffffffffffffffffffffffffffffffffffffff1673ffffffffffffffffffffffffffffffffffffffff1681526020019081526020015f205f015f9054906101000a900460ff166107b4576040517f08c379a00000000000000000000000000000000000000000000000000000000081526004016107ab90611d6f565b60405180910390fd5b600160058111156107c8576107c76119ec565b5b60035f9054906101000a900460ff1660058111156107e9576107e86119ec565b5b14610829576040517f08c379a000000000000000000000000000000000000000000000000000000000815260040161082090611f6b565b60405180910390fd5b60405160200161083890611fac565b604051602081830303815290604052805190602001208160405160200161085f9190612002565b60405160208183030381529060405280519060200120036108b5576040517f08c379a00000000000000000000000000000000000000000000000000000000081526004016108ac90612092565b60405180910390fd5b6108bd61163b565b81815f0181905250600481908060018154018082558091505060019003905f5260205f2090600202015f909190919091505f820151815f01908161090191906122aa565b506020820151816001015550507f92e393e9b54e2f801d3ea4beb0c5e71a21cc34a5d34b77d0fb8a3aa1650dc18f60016004805490506109419190612379565b60405161094e91906123ac565b60405180910390a15050565b60606109646114f5565b60046005811115610978576109776119ec565b5b60035f9054906101000a900460ff166005811115610999576109986119ec565b5b146109d9576040517f08c379a00000000000000000000000000000000000000000000000000000000081526004016109d090611c3f565b60405180910390fd5b5f805f805f90505b600480549050811015610a90578360048281548110610a0357610a02611c5d565b5b905f5260205f2090600202016001015403610a27578280610a2390611cb7565b9350505b8360048281548110610a3c57610a3b611c5d565b5b905f5260205f209060020201600101541115610a7d5760048181548110610a6657610a65611c5d565b5b905f5260205f209060020201600101549350600192505b8080610a8890611cb7565b9150506109e1565b505f8267ffffffffffffffff811115610aac57610aab6116fd565b5b604051908082528060200260200182016040528015610ada5781602001602082028036833780820191505090505b5090505f5b600480549050811015610b58578460048281548110610b0157610b00611c5d565b5b905f5260205f2090600202016001015403610b455780828481518110610b2a57610b29611c5d565b5b6020026020010181815250508280610b4190611cb7565b9350505b8080610b5090611cb7565b915050610adf565b50600560035f6101000a81548160ff02191690836005811115610b7e57610b7d6119ec565b5b02179055507f0a97a4ee45751e2abf3e4fc8946939630b11b371ea8ae39ccdc3056e98f5cc3f60046005604051610bb6929190611cfe565b60405180910390a18094505050505090565b80600181610bd69190612379565b6005811115610be857610be76119ec565b5b6005811115610bfa57610bf96119ec565b5b60035f9054906101000a900460ff166005811115610c1b57610c1a6119ec565b5b14610c5b576040517f08c379a0000000000000000000000000000000000000000000000000000000008152600401610c529061240f565b60405180910390fd5b60058103610c9e576040517f08c379a0000000000000000000000000000000000000000000000000000000008152600401610c9590612477565b60405180910390fd5b610ca66114f5565b5f60035f9054906101000a900460ff169050826005811115610ccb57610cca6119ec565b5b60035f6101000a81548160ff02191690836005811115610cee57610ced6119ec565b5b02179055507f0a97a4ee45751e2abf3e4fc8946939630b11b371ea8ae39ccdc3056e98f5cc3f8160035f9054906101000a900460ff16604051610d32929190611cfe565b60405180910390a1505050565b610d476114f5565b610d505f611573565b565b610d5a6114f5565b600460035f9054906101000a900460ff166005811115610d7d57610d7c6119ec565b5b03610dbd576040517f08c379a0000000000000000000000000000000000000000000000000000000008152600401610db4906124df565b60405180910390fd5b5f60035f9054906101000a900460ff169050600160035f9054906101000a900460ff166005811115610df257610df16119ec565b5b610dfc91906124fd565b6005811115610e0e57610e0d6119ec565b5b60035f6101000a81548160ff02191690836005811115610e3157610e306119ec565b5b02179055507f0a97a4ee45751e2abf3e4fc8946939630b11b371ea8ae39ccdc3056e98f5cc3f8160035f9054906101000a900460ff16604051610e75929190611cfe565b60405180910390a150565b610e886114f5565b5f6005811115610e9b57610e9a6119ec565b5b60035f9054906101000a900460ff166005811115610ebc57610ebb6119ec565b5b14610efc576040517f08c379a0000000000000000000000000000000000000000000000000000000008152600401610ef3906125a0565b60405180910390fd5b6001151560055f8373ffffffffffffffffffffffffffffffffffffffff1673ffffffffffffffffffffffffffffffffffffffff1681526020019081526020015f205f015f9054906101000a900460ff16151514610f8e576040517f08c379a0000000000000000000000000000000000000000000000000000000008152600401610f8590612608565b60405180910390fd5b5f60055f8373ffffffffffffffffffffffffffffffffffffffff1673ffffffffffffffffffffffffffffffffffffffff1681526020019081526020015f205f015f6101000a81548160ff0219169083151502179055507fb6be2187d059cc2a55fe29e0e503b566e1e0f8c8780096e185429350acffd3dd8160405161101391906119d3565b60405180910390a150565b5f805f9054906101000a900473ffffffffffffffffffffffffffffffffffffffff16905090565b60035f9054906101000a900460ff1681565b61105f61163b565b60055f3373ffffffffffffffffffffffffffffffffffffffff1673ffffffffffffffffffffffffffffffffffffffff1681526020019081526020015f205f015f9054906101000a900460ff166110ea576040517f08c379a00000000000000000000000000000000000000000000000000000000081526004016110e190611d6f565b60405180910390fd5b600482815481106110fe576110fd611c5d565b5b905f5260205f2090600202016040518060400160405290815f82018054611124906120dd565b80601f0160208091040260200160405190810160405280929190818152602001828054611150906120dd565b801561119b5780601f106111725761010080835404028352916020019161119b565b820191905f5260205f20905b81548152906001019060200180831161117e57829003601f168201915b505050505081526020016001820154815250509050919050565b6111bd611654565b60055f3373ffffffffffffffffffffffffffffffffffffffff1673ffffffffffffffffffffffffffffffffffffffff1681526020019081526020015f205f015f9054906101000a900460ff16611248576040517f08c379a000000000000000000000000000000000000000000000000000000000815260040161123f90611d6f565b60405180910390fd5b60055f8373ffffffffffffffffffffffffffffffffffffffff1673ffffffffffffffffffffffffffffffffffffffff1681526020019081526020015f206040518060600160405290815f82015f9054906101000a900460ff161515151581526020015f820160019054906101000a900460ff161515151581526020016001820154815250509050919050565b6112dc6114f5565b5f73ffffffffffffffffffffffffffffffffffffffff168173ffffffffffffffffffffffffffffffffffffffff160361134a576040517f08c379a000000000000000000000000000000000000000000000000000000000815260040161134190612696565b60405180910390fd5b61135381611573565b50565b61135e6114f5565b5f6005811115611371576113706119ec565b5b60035f9054906101000a900460ff166005811115611392576113916119ec565b5b146113d2576040517f08c379a00000000000000000000000000000000000000000000000000000000081526004016113c9906125a0565b60405180910390fd5b6001151560055f8373ffffffffffffffffffffffffffffffffffffffff1673ffffffffffffffffffffffffffffffffffffffff1681526020019081526020015f205f015f9054906101000a900460ff16151503611464576040517f08c379a000000000000000000000000000000000000000000000000000000000815260040161145b906126fe565b60405180910390fd5b600160055f8373ffffffffffffffffffffffffffffffffffffffff1673ffffffffffffffffffffffffffffffffffffffff1681526020019081526020015f205f015f6101000a81548160ff0219169083151502179055507fb6be2187d059cc2a55fe29e0e503b566e1e0f8c8780096e185429350acffd3dd816040516114ea91906119d3565b60405180910390a150565b6114fd611634565b73ffffffffffffffffffffffffffffffffffffffff1661151b61101e565b73ffffffffffffffffffffffffffffffffffffffff1614611571576040517f08c379a000000000000000000000000000000000000000000000000000000000815260040161156890612766565b60405180910390fd5b565b5f805f9054906101000a900473ffffffffffffffffffffffffffffffffffffffff169050815f806101000a81548173ffffffffffffffffffffffffffffffffffffffff021916908373ffffffffffffffffffffffffffffffffffffffff1602179055508173ffffffffffffffffffffffffffffffffffffffff168173ffffffffffffffffffffffffffffffffffffffff167f8be0079c531659141344cd1fd0a4f28419497f9722a3daafe3b4186f6b6457e060405160405180910390a35050565b5f33905090565b6040518060400160405280606081526020015f81525090565b60405180606001604052805f151581526020015f151581526020015f81525090565b5f604051905090565b5f80fd5b5f80fd5b5f819050919050565b61169981611687565b81146116a3575f80fd5b50565b5f813590506116b481611690565b92915050565b5f602082840312156116cf576116ce61167f565b5b5f6116dc848285016116a6565b91505092915050565b5f80fd5b5f80fd5b5f601f19601f8301169050919050565b7f4e487b71000000000000000000000000000000000000000000000000000000005f52604160045260245ffd5b611733826116ed565b810181811067ffffffffffffffff82111715611752576117516116fd565b5b80604052505050565b5f611764611676565b9050611770828261172a565b919050565b5f67ffffffffffffffff82111561178f5761178e6116fd565b5b611798826116ed565b9050602081019050919050565b828183375f83830152505050565b5f6117c56117c084611775565b61175b565b9050828152602081018484840111156117e1576117e06116e9565b5b6117ec8482856117a5565b509392505050565b5f82601f830112611808576118076116e5565b5b81356118188482602086016117b3565b91505092915050565b5f602082840312156118365761183561167f565b5b5f82013567ffffffffffffffff81111561185357611852611683565b5b61185f848285016117f4565b91505092915050565b5f81519050919050565b5f82825260208201905092915050565b5f819050602082019050919050565b61189a81611687565b82525050565b5f6118ab8383611891565b60208301905092915050565b5f602082019050919050565b5f6118cd82611868565b6118d78185611872565b93506118e283611882565b805f5b838110156119125781516118f988826118a0565b9750611904836118b7565b9250506001810190506118e5565b5085935050505092915050565b5f6020820190508181035f83015261193781846118c3565b905092915050565b5f73ffffffffffffffffffffffffffffffffffffffff82169050919050565b5f6119688261193f565b9050919050565b6119788161195e565b8114611982575f80fd5b50565b5f813590506119938161196f565b92915050565b5f602082840312156119ae576119ad61167f565b5b5f6119bb84828501611985565b91505092915050565b6119cd8161195e565b82525050565b5f6020820190506119e65f8301846119c4565b92915050565b7f4e487b71000000000000000000000000000000000000000000000000000000005f52602160045260245ffd5b60068110611a2a57611a296119ec565b5b50565b5f819050611a3a82611a19565b919050565b5f611a4982611a2d565b9050919050565b611a5981611a3f565b82525050565b5f602082019050611a725f830184611a50565b92915050565b5f81519050919050565b5f82825260208201905092915050565b5f5b83811015611aaf578082015181840152602081019050611a94565b5f8484015250505050565b5f611ac482611a78565b611ace8185611a82565b9350611ade818560208601611a92565b611ae7816116ed565b840191505092915050565b5f604083015f8301518482035f860152611b0c8282611aba565b9150506020830151611b216020860182611891565b508091505092915050565b5f6020820190508181035f830152611b448184611af2565b905092915050565b5f8115159050919050565b611b6081611b4c565b82525050565b606082015f820151611b7a5f850182611b57565b506020820151611b8d6020850182611b57565b506040820151611ba06040850182611891565b50505050565b5f606082019050611bb95f830184611b66565b92915050565b5f82825260208201905092915050565b7f43757272656e7420737461747573206973206e6f7420766f74696e67207365735f8201527f73696f6e20656e64656400000000000000000000000000000000000000000000602082015250565b5f611c29602a83611bbf565b9150611c3482611bcf565b604082019050919050565b5f6020820190508181035f830152611c5681611c1d565b9050919050565b7f4e487b71000000000000000000000000000000000000000000000000000000005f52603260045260245ffd5b7f4e487b71000000000000000000000000000000000000000000000000000000005f52601160045260245ffd5b5f611cc182611687565b91507fffffffffffffffffffffffffffffffffffffffffffffffffffffffffffffffff8203611cf357611cf2611c8a565b5b600182019050919050565b5f604082019050611d115f830185611a50565b611d1e6020830184611a50565b9392505050565b7f596f75277265206e6f74206120766f74657200000000000000000000000000005f82015250565b5f611d59601283611bbf565b9150611d6482611d25565b602082019050919050565b5f6020820190508181035f830152611d8681611d4d565b9050919050565b7f566f74696e672073657373696f6e20686176656e7420737461727465642079655f8201527f7400000000000000000000000000000000000000000000000000000000000000602082015250565b5f611de7602183611bbf565b9150611df282611d8d565b604082019050919050565b5f6020820190508181035f830152611e1481611ddb565b9050919050565b7f596f75206861766520616c726561647920766f746564000000000000000000005f82015250565b5f611e4f601683611bbf565b9150611e5a82611e1b565b602082019050919050565b5f6020820190508181035f830152611e7c81611e43565b9050919050565b7f50726f706f73616c206e6f7420666f756e6400000000000000000000000000005f82015250565b5f611eb7601283611bbf565b9150611ec282611e83565b602082019050919050565b5f6020820190508181035f830152611ee481611eab565b9050919050565b611ef481611687565b82525050565b5f604082019050611f0d5f8301856119c4565b611f1a6020830184611eeb565b9392505050565b7f50726f706f73616c7320617265206e6f7420616c6c6f776564207965740000005f82015250565b5f611f55601d83611bbf565b9150611f6082611f21565b602082019050919050565b5f6020820190508181035f830152611f8281611f49565b9050919050565b50565b5f611f975f83611bbf565b9150611fa282611f89565b5f82019050919050565b5f6020820190508181035f830152611fc381611f8c565b9050919050565b5f611fd482611a78565b611fde8185611bbf565b9350611fee818560208601611a92565b611ff7816116ed565b840191505092915050565b5f6020820190508181035f83015261201a8184611fca565b905092915050565b7f566f7573206e6520706f7576657a20706173206e65207269656e2070726f706f5f8201527f7365720000000000000000000000000000000000000000000000000000000000602082015250565b5f61207c602383611bbf565b915061208782612022565b604082019050919050565b5f6020820190508181035f8301526120a981612070565b9050919050565b7f4e487b71000000000000000000000000000000000000000000000000000000005f52602260045260245ffd5b5f60028204905060018216806120f457607f821691505b602082108103612107576121066120b0565b5b50919050565b5f819050815f5260205f209050919050565b5f6020601f8301049050919050565b5f82821b905092915050565b5f600883026121697fffffffffffffffffffffffffffffffffffffffffffffffffffffffffffffffff8261212e565b612173868361212e565b95508019841693508086168417925050509392505050565b5f819050919050565b5f6121ae6121a96121a484611687565b61218b565b611687565b9050919050565b5f819050919050565b6121c783612194565b6121db6121d3826121b5565b84845461213a565b825550505050565b5f90565b6121ef6121e3565b6121fa8184846121be565b505050565b5b8181101561221d576122125f826121e7565b600181019050612200565b5050565b601f821115612262576122338161210d565b61223c8461211f565b8101602085101561224b578190505b61225f6122578561211f565b8301826121ff565b50505b505050565b5f82821c905092915050565b5f6122825f1984600802612267565b1980831691505092915050565b5f61229a8383612273565b9150826002028217905092915050565b6122b382611a78565b67ffffffffffffffff8111156122cc576122cb6116fd565b5b6122d682546120dd565b6122e1828285612221565b5f60209050601f831160018114612312575f8415612300578287015190505b61230a858261228f565b865550612371565b601f1984166123208661210d565b5f5b8281101561234757848901518255600182019150602085019450602081019050612322565b868310156123645784890151612360601f891682612273565b8355505b6001600288020188555050505b505050505050565b5f61238382611687565b915061238e83611687565b92508282039050818111156123a6576123a5611c8a565b5b92915050565b5f6020820190506123bf5f830184611eeb565b92915050565b7f62616420776f726b666c6f7773746174757300000000000000000000000000005f82015250565b5f6123f9601283611bbf565b9150612404826123c5565b602082019050919050565b5f6020820190508181035f830152612426816123ed565b9050919050565b7f696c2066617574206c616e6365722074616c6c7920766f7465730000000000005f82015250565b5f612461601a83611bbf565b915061246c8261242d565b602082019050919050565b5f6020820190508181035f83015261248e81612455565b9050919050565b7f696c2066617574206c616e6365722074616c6c79766f746573000000000000005f82015250565b5f6124c9601983611bbf565b91506124d482612495565b602082019050919050565b5f6020820190508181035f8301526124f6816124bd565b9050919050565b5f61250782611687565b915061251283611687565b925082820190508082111561252a57612529611c8a565b5b92915050565b7f566f7465727320726567697374726174696f6e206973206e6f74206f70656e205f8201527f7965740000000000000000000000000000000000000000000000000000000000602082015250565b5f61258a602383611bbf565b915061259582612530565b604082019050919050565b5f6020820190508181035f8301526125b78161257e565b9050919050565b7f4e6f7420726567697374657265642e00000000000000000000000000000000005f82015250565b5f6125f2600f83611bbf565b91506125fd826125be565b602082019050919050565b5f6020820190508181035f83015261261f816125e6565b9050919050565b7f4f776e61626c653a206e6577206f776e657220697320746865207a65726f20615f8201527f6464726573730000000000000000000000000000000000000000000000000000602082015250565b5f612680602683611bbf565b915061268b82612626565b604082019050919050565b5f6020820190508181035f8301526126ad81612674565b9050919050565b7f416c7265616479207265676973746572656400000000000000000000000000005f82015250565b5f6126e8601283611bbf565b91506126f3826126b4565b602082019050919050565b5f6020820190508181035f830152612715816126dc565b9050919050565b7f4f776e61626c653a2063616c6c6572206973206e6f7420746865206f776e65725f82015250565b5f612750602083611bbf565b915061275b8261271c565b602082019050919050565b5f6020820190508181035f83015261277d81612744565b905091905056fea2646970667358221220266563ee6e1964ae6af71f667004edaeaeb6b3a94fd9293a2c0a55fe82f6d3ab64736f6c63430008140033",
  "immutableReferences": {},
  "source": "// SPDX-License-Identifier: MIT\n\npragma solidity ^0.8.13;\nimport \"@openzeppelin/contracts/access/Ownable.sol\";\n\n\ncontract Voting is Ownable {\n\n    uint[] winningProposalsID;\n    Proposal[] winningProposals;\n    \n    struct Voter {\n        bool isRegistered;\n        bool hasVoted;\n        uint votedProposalId;\n    }\n\n    struct Proposal {\n        string description;\n        uint voteCount;\n    }\n\n    enum  WorkflowStatus {\n        RegisteringVoters,\n        ProposalsRegistrationStarted,\n        ProposalsRegistrationEnded,\n        VotingSessionStarted,\n        VotingSessionEnded,\n        VotesTallied\n    }\n\n    WorkflowStatus public workflowStatus;\n    Proposal[] proposalsArray;\n    mapping (address => Voter) voters;\n\n\n    event VoterRegistered(address voterAddress); \n    event WorkflowStatusChange(WorkflowStatus previousStatus, WorkflowStatus newStatus);\n    event ProposalRegistered(uint proposalId);\n    event Voted (address voter, uint proposalId);\n\n    modifier onlyVoters() {\n        require(voters[msg.sender].isRegistered, \"You're not a voter\");\n        _;\n    }\n    \n    // on peut faire un modifier pour les tats\n\n    // ::::::::::::: GETTERS ::::::::::::: //\n\n    function getVoter(address _addr) external onlyVoters view returns (Voter memory) {\n        return voters[_addr];\n    }\n    \n    function getOneProposal(uint _id) external onlyVoters view returns (Proposal memory) {\n        return proposalsArray[_id];\n    }\n\n \n    // ::::::::::::: REGISTRATION ::::::::::::: // \n\n    function addVoter(address _addr) external onlyOwner {\n        require(workflowStatus == WorkflowStatus.RegisteringVoters, 'Voters registration is not open yet');\n        require(voters[_addr].isRegistered != true, 'Already registered');\n    \n        voters[_addr].isRegistered = true;\n        emit VoterRegistered(_addr);\n    }\n \n    \n    function deleteVoter(address _addr) external onlyOwner {\n        require(workflowStatus == WorkflowStatus.RegisteringVoters, 'Voters registration is not open yet');\n        require(voters[_addr].isRegistered == true, 'Not registered.');\n        voters[_addr].isRegistered = false;\n        emit VoterRegistered(_addr);\n    }\n\n    // ::::::::::::: PROPOSAL ::::::::::::: // \n\n    function addProposal(string memory _desc) external onlyVoters {\n        require(workflowStatus == WorkflowStatus.ProposalsRegistrationStarted, 'Proposals are not allowed yet');\n        require(keccak256(abi.encode(_desc)) != keccak256(abi.encode(\"\")), 'Vous ne pouvez pas ne rien proposer'); // facultatif\n        // voir que desc est different des autres\n\n        Proposal memory proposal;\n        proposal.description = _desc;\n        proposalsArray.push(proposal);\n        emit ProposalRegistered(proposalsArray.length-1);\n    }\n\n    // ::::::::::::: VOTE ::::::::::::: //\n\n    function setVote( uint _id) external onlyVoters {\n        require(workflowStatus == WorkflowStatus.VotingSessionStarted, 'Voting session havent started yet');\n        require(voters[msg.sender].hasVoted != true, 'You have already voted');\n        require(_id < proposalsArray.length, 'Proposal not found'); // pas oblig, et pas besoin du >0 car uint\n\n        voters[msg.sender].votedProposalId = _id;\n        voters[msg.sender].hasVoted = true;\n        proposalsArray[_id].voteCount++;\n\n        emit Voted(msg.sender, _id);\n    }\n\n    // ::::::::::::: STATE ::::::::::::: //\n\n    modifier checkWorkflowStatus(uint  _num) {\n        require (workflowStatus==WorkflowStatus(uint(_num)-1), \"bad workflowstatus\");\n        require (_num != 5, \"il faut lancer tally votes\");\n        _;\n      }\n    \n    function setWorkflowStatus(uint _num) external checkWorkflowStatus(_num) onlyOwner {\n        WorkflowStatus old = workflowStatus;\n        workflowStatus = WorkflowStatus(_num);\n        emit WorkflowStatusChange(old, workflowStatus);\n       } \n    \n    //ou \n\n    function nextWorkflowStatus() external onlyOwner{\n        require (uint(workflowStatus)!=4, \"il faut lancer tallyvotes\");\n        WorkflowStatus old = workflowStatus;\n        workflowStatus= WorkflowStatus(uint (workflowStatus) + 1);\n        emit WorkflowStatusChange(old, workflowStatus);\n    }\n        \n\n    function tallyVotesDraw() external onlyOwner returns (uint[] memory){\n       require(workflowStatus == WorkflowStatus.VotingSessionEnded, \"Current status is not voting session ended\");\n        uint highestCount;\n        uint nbWinners;\n        uint temp;\n        for (uint i = 0; i < proposalsArray.length; i++) {\n            if (proposalsArray[i].voteCount == highestCount) {\n                nbWinners++;\n            }\n            if (proposalsArray[i].voteCount > highestCount) {\n                highestCount = proposalsArray[i].voteCount;\n                nbWinners=1;\n            }\n        }\n        uint[] memory winners = new uint[](nbWinners);\n\n        for (uint h=0; h< proposalsArray.length; h++) {\n            if (proposalsArray[h].voteCount == highestCount) {\n                winners[temp] = h;\n                temp++;\n            }\n        }\n        workflowStatus = WorkflowStatus.VotesTallied;\n        emit WorkflowStatusChange(WorkflowStatus.VotingSessionEnded, WorkflowStatus.VotesTallied);\n\n        return winners;\n    }\n\n\n// ou\n    function tallyDraw() external onlyOwner{\n       require(workflowStatus == WorkflowStatus.VotingSessionEnded, \"Current status is not voting session ended\");\n        uint highestCount;\n        \n        for (uint i = 0; i < proposalsArray.length; i++) {\n            if (proposalsArray[i].voteCount > highestCount) {\n                highestCount = proposalsArray[i].voteCount;\n            }\n        }\n        \n        for (uint j = 0; j < proposalsArray.length; j++) {\n            if (proposalsArray[j].voteCount == highestCount) {\n                winningProposalsID.push(j);\n            }\n        }\n\n        workflowStatus = WorkflowStatus.VotesTallied;\n        emit WorkflowStatusChange(WorkflowStatus.VotingSessionEnded, WorkflowStatus.VotesTallied);\n\n    }\n\n}",
  "sourcePath": "/home/adm-linux/projet2/contracts/Voting.sol",
  "compiler": {
    "name": "solc",
    "version": "0.8.20+commit.a1b79de6.Emscripten.clang"
  },
  "schemaVersion": "3.4.14",
  "updatedAt": "2023-06-06T13:22:41.932Z",
  "networkType": "ethereum",
  "devdoc": {
    "kind": "dev",
    "methods": {
      "owner()": {
        "details": "Returns the address of the current owner."
      },
      "renounceOwnership()": {
        "details": "Leaves the contract without owner. It will not be possible to call `onlyOwner` functions. Can only be called by the current owner. NOTE: Renouncing ownership will leave the contract without an owner, thereby disabling any functionality that is only available to the owner."
      },
      "transferOwnership(address)": {
        "details": "Transfers ownership of the contract to a new account (`newOwner`). Can only be called by the current owner."
      }
    },
    "version": 1
  },
  "userdoc": {
    "kind": "user",
    "methods": {},
    "version": 1
  }
}